{
	"contracts/Donation.sol": {
		"Donation": {
			"abi": [
				{
					"anonymous": false,
					"inputs": [
						{
							"indexed": false,
							"internalType": "address",
							"name": "_msgSender",
							"type": "address"
						},
						{
							"indexed": false,
							"internalType": "address",
							"name": "_to",
							"type": "address"
						},
						{
							"indexed": false,
							"internalType": "uint256",
							"name": "_value",
							"type": "uint256"
						}
					],
					"name": "CurrentValueOfSomeone",
					"type": "event"
				},
				{
					"anonymous": false,
					"inputs": [
						{
							"indexed": false,
							"internalType": "address",
							"name": "_msgSender",
							"type": "address"
						},
						{
							"indexed": false,
							"internalType": "uint256",
							"name": "_value",
							"type": "uint256"
						}
					],
					"name": "MyCurrentValue",
					"type": "event"
				},
				{
					"anonymous": false,
					"inputs": [
						{
							"indexed": false,
							"internalType": "address",
							"name": "_msgSender",
							"type": "address"
						},
						{
							"indexed": false,
							"internalType": "uint256",
							"name": "_currentValue",
							"type": "uint256"
						}
					],
					"name": "SendInfo",
					"type": "event"
				},
				{
					"inputs": [
						{
							"internalType": "address",
							"name": "_to",
							"type": "address"
						}
					],
					"name": "checkUserValue",
					"outputs": [],
					"stateMutability": "nonpayable",
					"type": "function"
				},
				{
					"inputs": [],
					"name": "checkValueNow",
					"outputs": [],
					"stateMutability": "nonpayable",
					"type": "function"
				},
				{
					"inputs": [
						{
							"internalType": "address payable",
							"name": "_to",
							"type": "address"
						}
					],
					"name": "sendEther",
					"outputs": [],
					"stateMutability": "payable",
					"type": "function"
				}
			],
			"devdoc": {
				"kind": "dev",
				"methods": {},
				"version": 1
			},
			"evm": {
				"assembly": "    /* \"contracts/Donation.sol\":260:1257  contract Donation{\r... */\n  mstore(0x40, 0x80)\n  callvalue\n  dup1\n  iszero\n  tag_1\n  jumpi\n  0x00\n  dup1\n  revert\ntag_1:\n  pop\n  dataSize(sub_0)\n  dup1\n  dataOffset(sub_0)\n  0x00\n  codecopy\n  0x00\n  return\nstop\n\nsub_0: assembly {\n        /* \"contracts/Donation.sol\":260:1257  contract Donation{\r... */\n      mstore(0x40, 0x80)\n      jumpi(tag_1, lt(calldatasize, 0x04))\n      shr(0xe0, calldataload(0x00))\n      dup1\n      0x48c981e2\n      eq\n      tag_2\n      jumpi\n      dup1\n      0x74003de9\n      eq\n      tag_3\n      jumpi\n      dup1\n      0xc776b4df\n      eq\n      tag_4\n      jumpi\n    tag_1:\n      0x00\n      dup1\n      revert\n        /* \"contracts/Donation.sol\":527:871  function sendEther(address payable _to) public payable {\r... */\n    tag_2:\n      tag_5\n      0x04\n      dup1\n      calldatasize\n      sub\n      dup2\n      add\n      swap1\n      tag_6\n      swap2\n      swap1\n      tag_7\n      jump\t// in\n    tag_6:\n      tag_8\n      jump\t// in\n    tag_5:\n      stop\n        /* \"contracts/Donation.sol\":1135:1252  function checkUserValue(address _to) public{\r... */\n    tag_3:\n      callvalue\n      dup1\n      iszero\n      tag_9\n      jumpi\n      0x00\n      dup1\n      revert\n    tag_9:\n      pop\n      tag_10\n      0x04\n      dup1\n      calldatasize\n      sub\n      dup2\n      add\n      swap1\n      tag_11\n      swap2\n      swap1\n      tag_12\n      jump\t// in\n    tag_11:\n      tag_13\n      jump\t// in\n    tag_10:\n      stop\n        /* \"contracts/Donation.sol\":918:1021  function checkValueNow() public{\r... */\n    tag_4:\n      callvalue\n      dup1\n      iszero\n      tag_14\n      jumpi\n      0x00\n      dup1\n      revert\n    tag_14:\n      pop\n      tag_15\n      tag_16\n      jump\t// in\n    tag_15:\n      stop\n        /* \"contracts/Donation.sol\":527:871  function sendEther(address payable _to) public payable {\r... */\n    tag_8:\n        /* \"contracts/Donation.sol\":624:633  msg.value */\n      callvalue\n        /* \"contracts/Donation.sol\":602:612  msg.sender */\n      caller\n        /* \"contracts/Donation.sol\":602:620  msg.sender.balance */\n      0xffffffffffffffffffffffffffffffffffffffff\n      and\n      balance\n        /* \"contracts/Donation.sol\":602:633  msg.sender.balance >= msg.value */\n      lt\n      iszero\n        /* \"contracts/Donation.sol\":593:671  require (msg.sender.balance >= msg.value , \"your balance is not enough, test\") */\n      tag_18\n      jumpi\n      mload(0x40)\n      0x08c379a000000000000000000000000000000000000000000000000000000000\n      dup2\n      mstore\n      0x04\n      add\n      tag_19\n      swap1\n      tag_20\n      jump\t// in\n    tag_19:\n      mload(0x40)\n      dup1\n      swap2\n      sub\n      swap1\n      revert\n    tag_18:\n        /* \"contracts/Donation.sol\":737:740  _to */\n      dup1\n        /* \"contracts/Donation.sol\":737:749  _to.transfer */\n      0xffffffffffffffffffffffffffffffffffffffff\n      and\n        /* \"contracts/Donation.sol\":737:760  _to.transfer(msg.value) */\n      0x08fc\n        /* \"contracts/Donation.sol\":750:759  msg.value */\n      callvalue\n        /* \"contracts/Donation.sol\":737:760  _to.transfer(msg.value) */\n      swap1\n      dup2\n      iszero\n      mul\n      swap1\n      mload(0x40)\n      0x00\n      mload(0x40)\n      dup1\n      dup4\n      sub\n      dup2\n      dup6\n      dup9\n      dup9\n      call\n      swap4\n      pop\n      pop\n      pop\n      pop\n      iszero\n      dup1\n      iszero\n      tag_22\n      jumpi\n      returndatasize\n      0x00\n      dup1\n      returndatacopy\n      revert(0x00, returndatasize)\n    tag_22:\n      pop\n        /* \"contracts/Donation.sol\":821:863  SendInfo(msg.sender, (msg.sender).balance) */\n      0xef3d45e3976629248ff5a27c6e07e8c80013b2b1f46611f16ebf46c6bf09be29\n        /* \"contracts/Donation.sol\":830:840  msg.sender */\n      caller\n        /* \"contracts/Donation.sol\":843:853  msg.sender */\n      caller\n        /* \"contracts/Donation.sol\":842:862  (msg.sender).balance */\n      0xffffffffffffffffffffffffffffffffffffffff\n      and\n      balance\n        /* \"contracts/Donation.sol\":821:863  SendInfo(msg.sender, (msg.sender).balance) */\n      mload(0x40)\n      tag_23\n      swap3\n      swap2\n      swap1\n      tag_24\n      jump\t// in\n    tag_23:\n      mload(0x40)\n      dup1\n      swap2\n      sub\n      swap1\n      log1\n        /* \"contracts/Donation.sol\":527:871  function sendEther(address payable _to) public payable {\r... */\n      pop\n      jump\t// out\n        /* \"contracts/Donation.sol\":1135:1252  function checkUserValue(address _to) public{\r... */\n    tag_13:\n        /* \"contracts/Donation.sol\":1193:1244  CurrentValueOfSomeone(msg.sender, _to, _to.balance) */\n      0xbce456ac206bf5f267f4accbf956229979251e867ffc3fb45ca938fc6a27a440\n        /* \"contracts/Donation.sol\":1215:1225  msg.sender */\n      caller\n        /* \"contracts/Donation.sol\":1227:1230  _to */\n      dup3\n        /* \"contracts/Donation.sol\":1232:1235  _to */\n      dup4\n        /* \"contracts/Donation.sol\":1232:1243  _to.balance */\n      0xffffffffffffffffffffffffffffffffffffffff\n      and\n      balance\n        /* \"contracts/Donation.sol\":1193:1244  CurrentValueOfSomeone(msg.sender, _to, _to.balance) */\n      mload(0x40)\n      tag_26\n      swap4\n      swap3\n      swap2\n      swap1\n      tag_27\n      jump\t// in\n    tag_26:\n      mload(0x40)\n      dup1\n      swap2\n      sub\n      swap1\n      log1\n        /* \"contracts/Donation.sol\":1135:1252  function checkUserValue(address _to) public{\r... */\n      pop\n      jump\t// out\n        /* \"contracts/Donation.sol\":918:1021  function checkValueNow() public{\r... */\n    tag_16:\n        /* \"contracts/Donation.sol\":965:1013  MyCurrentValue(msg.sender, (msg.sender).balance) */\n      0x96f3ab567151de7a605db2b427c0e7bd4c402b81f2d24c89b0b92687e0494c15\n        /* \"contracts/Donation.sol\":980:990  msg.sender */\n      caller\n        /* \"contracts/Donation.sol\":993:1003  msg.sender */\n      caller\n        /* \"contracts/Donation.sol\":992:1012  (msg.sender).balance */\n      0xffffffffffffffffffffffffffffffffffffffff\n      and\n      balance\n        /* \"contracts/Donation.sol\":965:1013  MyCurrentValue(msg.sender, (msg.sender).balance) */\n      mload(0x40)\n      tag_29\n      swap3\n      swap2\n      swap1\n      tag_24\n      jump\t// in\n    tag_29:\n      mload(0x40)\n      dup1\n      swap2\n      sub\n      swap1\n      log1\n        /* \"contracts/Donation.sol\":918:1021  function checkValueNow() public{\r... */\n      jump\t// out\n        /* \"#utility.yul\":7:146   */\n    tag_31:\n        /* \"#utility.yul\":53:58   */\n      0x00\n        /* \"#utility.yul\":91:97   */\n      dup2\n        /* \"#utility.yul\":78:98   */\n      calldataload\n        /* \"#utility.yul\":69:98   */\n      swap1\n      pop\n        /* \"#utility.yul\":107:140   */\n      tag_33\n        /* \"#utility.yul\":134:139   */\n      dup2\n        /* \"#utility.yul\":107:140   */\n      tag_34\n      jump\t// in\n    tag_33:\n        /* \"#utility.yul\":7:146   */\n      swap3\n      swap2\n      pop\n      pop\n      jump\t// out\n        /* \"#utility.yul\":152:307   */\n    tag_35:\n        /* \"#utility.yul\":206:211   */\n      0x00\n        /* \"#utility.yul\":244:250   */\n      dup2\n        /* \"#utility.yul\":231:251   */\n      calldataload\n        /* \"#utility.yul\":222:251   */\n      swap1\n      pop\n        /* \"#utility.yul\":260:301   */\n      tag_37\n        /* \"#utility.yul\":295:300   */\n      dup2\n        /* \"#utility.yul\":260:301   */\n      tag_38\n      jump\t// in\n    tag_37:\n        /* \"#utility.yul\":152:307   */\n      swap3\n      swap2\n      pop\n      pop\n      jump\t// out\n        /* \"#utility.yul\":313:642   */\n    tag_12:\n        /* \"#utility.yul\":372:378   */\n      0x00\n        /* \"#utility.yul\":421:423   */\n      0x20\n        /* \"#utility.yul\":409:418   */\n      dup3\n        /* \"#utility.yul\":400:407   */\n      dup5\n        /* \"#utility.yul\":396:419   */\n      sub\n        /* \"#utility.yul\":392:424   */\n      slt\n        /* \"#utility.yul\":389:508   */\n      iszero\n      tag_40\n      jumpi\n        /* \"#utility.yul\":427:506   */\n      tag_41\n      tag_42\n      jump\t// in\n    tag_41:\n        /* \"#utility.yul\":389:508   */\n    tag_40:\n        /* \"#utility.yul\":547:548   */\n      0x00\n        /* \"#utility.yul\":572:625   */\n      tag_43\n        /* \"#utility.yul\":617:624   */\n      dup5\n        /* \"#utility.yul\":608:614   */\n      dup3\n        /* \"#utility.yul\":597:606   */\n      dup6\n        /* \"#utility.yul\":593:615   */\n      add\n        /* \"#utility.yul\":572:625   */\n      tag_31\n      jump\t// in\n    tag_43:\n        /* \"#utility.yul\":562:625   */\n      swap2\n      pop\n        /* \"#utility.yul\":518:635   */\n      pop\n        /* \"#utility.yul\":313:642   */\n      swap3\n      swap2\n      pop\n      pop\n      jump\t// out\n        /* \"#utility.yul\":648:993   */\n    tag_7:\n        /* \"#utility.yul\":715:721   */\n      0x00\n        /* \"#utility.yul\":764:766   */\n      0x20\n        /* \"#utility.yul\":752:761   */\n      dup3\n        /* \"#utility.yul\":743:750   */\n      dup5\n        /* \"#utility.yul\":739:762   */\n      sub\n        /* \"#utility.yul\":735:767   */\n      slt\n        /* \"#utility.yul\":732:851   */\n      iszero\n      tag_45\n      jumpi\n        /* \"#utility.yul\":770:849   */\n      tag_46\n      tag_42\n      jump\t// in\n    tag_46:\n        /* \"#utility.yul\":732:851   */\n    tag_45:\n        /* \"#utility.yul\":890:891   */\n      0x00\n        /* \"#utility.yul\":915:976   */\n      tag_47\n        /* \"#utility.yul\":968:975   */\n      dup5\n        /* \"#utility.yul\":959:965   */\n      dup3\n        /* \"#utility.yul\":948:957   */\n      dup6\n        /* \"#utility.yul\":944:966   */\n      add\n        /* \"#utility.yul\":915:976   */\n      tag_35\n      jump\t// in\n    tag_47:\n        /* \"#utility.yul\":905:976   */\n      swap2\n      pop\n        /* \"#utility.yul\":861:986   */\n      pop\n        /* \"#utility.yul\":648:993   */\n      swap3\n      swap2\n      pop\n      pop\n      jump\t// out\n        /* \"#utility.yul\":999:1117   */\n    tag_48:\n        /* \"#utility.yul\":1086:1110   */\n      tag_50\n        /* \"#utility.yul\":1104:1109   */\n      dup2\n        /* \"#utility.yul\":1086:1110   */\n      tag_51\n      jump\t// in\n    tag_50:\n        /* \"#utility.yul\":1081:1084   */\n      dup3\n        /* \"#utility.yul\":1074:1111   */\n      mstore\n        /* \"#utility.yul\":999:1117   */\n      pop\n      pop\n      jump\t// out\n        /* \"#utility.yul\":1123:1489   */\n    tag_52:\n        /* \"#utility.yul\":1265:1268   */\n      0x00\n        /* \"#utility.yul\":1286:1353   */\n      tag_54\n        /* \"#utility.yul\":1350:1352   */\n      0x20\n        /* \"#utility.yul\":1345:1348   */\n      dup4\n        /* \"#utility.yul\":1286:1353   */\n      tag_55\n      jump\t// in\n    tag_54:\n        /* \"#utility.yul\":1279:1353   */\n      swap2\n      pop\n        /* \"#utility.yul\":1362:1455   */\n      tag_56\n        /* \"#utility.yul\":1451:1454   */\n      dup3\n        /* \"#utility.yul\":1362:1455   */\n      tag_57\n      jump\t// in\n    tag_56:\n        /* \"#utility.yul\":1480:1482   */\n      0x20\n        /* \"#utility.yul\":1475:1478   */\n      dup3\n        /* \"#utility.yul\":1471:1483   */\n      add\n        /* \"#utility.yul\":1464:1483   */\n      swap1\n      pop\n        /* \"#utility.yul\":1123:1489   */\n      swap2\n      swap1\n      pop\n      jump\t// out\n        /* \"#utility.yul\":1495:1613   */\n    tag_58:\n        /* \"#utility.yul\":1582:1606   */\n      tag_60\n        /* \"#utility.yul\":1600:1605   */\n      dup2\n        /* \"#utility.yul\":1582:1606   */\n      tag_61\n      jump\t// in\n    tag_60:\n        /* \"#utility.yul\":1577:1580   */\n      dup3\n        /* \"#utility.yul\":1570:1607   */\n      mstore\n        /* \"#utility.yul\":1495:1613   */\n      pop\n      pop\n      jump\t// out\n        /* \"#utility.yul\":1619:2061   */\n    tag_27:\n        /* \"#utility.yul\":1768:1772   */\n      0x00\n        /* \"#utility.yul\":1806:1808   */\n      0x60\n        /* \"#utility.yul\":1795:1804   */\n      dup3\n        /* \"#utility.yul\":1791:1809   */\n      add\n        /* \"#utility.yul\":1783:1809   */\n      swap1\n      pop\n        /* \"#utility.yul\":1819:1890   */\n      tag_63\n        /* \"#utility.yul\":1887:1888   */\n      0x00\n        /* \"#utility.yul\":1876:1885   */\n      dup4\n        /* \"#utility.yul\":1872:1889   */\n      add\n        /* \"#utility.yul\":1863:1869   */\n      dup7\n        /* \"#utility.yul\":1819:1890   */\n      tag_48\n      jump\t// in\n    tag_63:\n        /* \"#utility.yul\":1900:1972   */\n      tag_64\n        /* \"#utility.yul\":1968:1970   */\n      0x20\n        /* \"#utility.yul\":1957:1966   */\n      dup4\n        /* \"#utility.yul\":1953:1971   */\n      add\n        /* \"#utility.yul\":1944:1950   */\n      dup6\n        /* \"#utility.yul\":1900:1972   */\n      tag_48\n      jump\t// in\n    tag_64:\n        /* \"#utility.yul\":1982:2054   */\n      tag_65\n        /* \"#utility.yul\":2050:2052   */\n      0x40\n        /* \"#utility.yul\":2039:2048   */\n      dup4\n        /* \"#utility.yul\":2035:2053   */\n      add\n        /* \"#utility.yul\":2026:2032   */\n      dup5\n        /* \"#utility.yul\":1982:2054   */\n      tag_58\n      jump\t// in\n    tag_65:\n        /* \"#utility.yul\":1619:2061   */\n      swap5\n      swap4\n      pop\n      pop\n      pop\n      pop\n      jump\t// out\n        /* \"#utility.yul\":2067:2399   */\n    tag_24:\n        /* \"#utility.yul\":2188:2192   */\n      0x00\n        /* \"#utility.yul\":2226:2228   */\n      0x40\n        /* \"#utility.yul\":2215:2224   */\n      dup3\n        /* \"#utility.yul\":2211:2229   */\n      add\n        /* \"#utility.yul\":2203:2229   */\n      swap1\n      pop\n        /* \"#utility.yul\":2239:2310   */\n      tag_67\n        /* \"#utility.yul\":2307:2308   */\n      0x00\n        /* \"#utility.yul\":2296:2305   */\n      dup4\n        /* \"#utility.yul\":2292:2309   */\n      add\n        /* \"#utility.yul\":2283:2289   */\n      dup6\n        /* \"#utility.yul\":2239:2310   */\n      tag_48\n      jump\t// in\n    tag_67:\n        /* \"#utility.yul\":2320:2392   */\n      tag_68\n        /* \"#utility.yul\":2388:2390   */\n      0x20\n        /* \"#utility.yul\":2377:2386   */\n      dup4\n        /* \"#utility.yul\":2373:2391   */\n      add\n        /* \"#utility.yul\":2364:2370   */\n      dup5\n        /* \"#utility.yul\":2320:2392   */\n      tag_58\n      jump\t// in\n    tag_68:\n        /* \"#utility.yul\":2067:2399   */\n      swap4\n      swap3\n      pop\n      pop\n      pop\n      jump\t// out\n        /* \"#utility.yul\":2405:2824   */\n    tag_20:\n        /* \"#utility.yul\":2571:2575   */\n      0x00\n        /* \"#utility.yul\":2609:2611   */\n      0x20\n        /* \"#utility.yul\":2598:2607   */\n      dup3\n        /* \"#utility.yul\":2594:2612   */\n      add\n        /* \"#utility.yul\":2586:2612   */\n      swap1\n      pop\n        /* \"#utility.yul\":2658:2667   */\n      dup2\n        /* \"#utility.yul\":2652:2656   */\n      dup2\n        /* \"#utility.yul\":2648:2668   */\n      sub\n        /* \"#utility.yul\":2644:2645   */\n      0x00\n        /* \"#utility.yul\":2633:2642   */\n      dup4\n        /* \"#utility.yul\":2629:2646   */\n      add\n        /* \"#utility.yul\":2622:2669   */\n      mstore\n        /* \"#utility.yul\":2686:2817   */\n      tag_70\n        /* \"#utility.yul\":2812:2816   */\n      dup2\n        /* \"#utility.yul\":2686:2817   */\n      tag_52\n      jump\t// in\n    tag_70:\n        /* \"#utility.yul\":2678:2817   */\n      swap1\n      pop\n        /* \"#utility.yul\":2405:2824   */\n      swap2\n      swap1\n      pop\n      jump\t// out\n        /* \"#utility.yul\":2911:3080   */\n    tag_55:\n        /* \"#utility.yul\":2995:3006   */\n      0x00\n        /* \"#utility.yul\":3029:3035   */\n      dup3\n        /* \"#utility.yul\":3024:3027   */\n      dup3\n        /* \"#utility.yul\":3017:3036   */\n      mstore\n        /* \"#utility.yul\":3069:3073   */\n      0x20\n        /* \"#utility.yul\":3064:3067   */\n      dup3\n        /* \"#utility.yul\":3060:3074   */\n      add\n        /* \"#utility.yul\":3045:3074   */\n      swap1\n      pop\n        /* \"#utility.yul\":2911:3080   */\n      swap3\n      swap2\n      pop\n      pop\n      jump\t// out\n        /* \"#utility.yul\":3086:3182   */\n    tag_51:\n        /* \"#utility.yul\":3123:3130   */\n      0x00\n        /* \"#utility.yul\":3152:3176   */\n      tag_75\n        /* \"#utility.yul\":3170:3175   */\n      dup3\n        /* \"#utility.yul\":3152:3176   */\n      tag_76\n      jump\t// in\n    tag_75:\n        /* \"#utility.yul\":3141:3176   */\n      swap1\n      pop\n        /* \"#utility.yul\":3086:3182   */\n      swap2\n      swap1\n      pop\n      jump\t// out\n        /* \"#utility.yul\":3188:3292   */\n    tag_77:\n        /* \"#utility.yul\":3233:3240   */\n      0x00\n        /* \"#utility.yul\":3262:3286   */\n      tag_79\n        /* \"#utility.yul\":3280:3285   */\n      dup3\n        /* \"#utility.yul\":3262:3286   */\n      tag_76\n      jump\t// in\n    tag_79:\n        /* \"#utility.yul\":3251:3286   */\n      swap1\n      pop\n        /* \"#utility.yul\":3188:3292   */\n      swap2\n      swap1\n      pop\n      jump\t// out\n        /* \"#utility.yul\":3298:3424   */\n    tag_76:\n        /* \"#utility.yul\":3335:3342   */\n      0x00\n        /* \"#utility.yul\":3375:3417   */\n      0xffffffffffffffffffffffffffffffffffffffff\n        /* \"#utility.yul\":3368:3373   */\n      dup3\n        /* \"#utility.yul\":3364:3418   */\n      and\n        /* \"#utility.yul\":3353:3418   */\n      swap1\n      pop\n        /* \"#utility.yul\":3298:3424   */\n      swap2\n      swap1\n      pop\n      jump\t// out\n        /* \"#utility.yul\":3430:3507   */\n    tag_61:\n        /* \"#utility.yul\":3467:3474   */\n      0x00\n        /* \"#utility.yul\":3496:3501   */\n      dup2\n        /* \"#utility.yul\":3485:3501   */\n      swap1\n      pop\n        /* \"#utility.yul\":3430:3507   */\n      swap2\n      swap1\n      pop\n      jump\t// out\n        /* \"#utility.yul\":3636:3753   */\n    tag_42:\n        /* \"#utility.yul\":3745:3746   */\n      0x00\n        /* \"#utility.yul\":3742:3743   */\n      dup1\n        /* \"#utility.yul\":3735:3747   */\n      revert\n        /* \"#utility.yul\":3759:3941   */\n    tag_57:\n        /* \"#utility.yul\":3899:3933   */\n      0x796f75722062616c616e6365206973206e6f7420656e6f7567682c2074657374\n        /* \"#utility.yul\":3895:3896   */\n      0x00\n        /* \"#utility.yul\":3887:3893   */\n      dup3\n        /* \"#utility.yul\":3883:3897   */\n      add\n        /* \"#utility.yul\":3876:3934   */\n      mstore\n        /* \"#utility.yul\":3759:3941   */\n      pop\n      jump\t// out\n        /* \"#utility.yul\":3947:4069   */\n    tag_34:\n        /* \"#utility.yul\":4020:4044   */\n      tag_87\n        /* \"#utility.yul\":4038:4043   */\n      dup2\n        /* \"#utility.yul\":4020:4044   */\n      tag_51\n      jump\t// in\n    tag_87:\n        /* \"#utility.yul\":4013:4018   */\n      dup2\n        /* \"#utility.yul\":4010:4045   */\n      eq\n        /* \"#utility.yul\":4000:4063   */\n      tag_88\n      jumpi\n        /* \"#utility.yul\":4059:4060   */\n      0x00\n        /* \"#utility.yul\":4056:4057   */\n      dup1\n        /* \"#utility.yul\":4049:4061   */\n      revert\n        /* \"#utility.yul\":4000:4063   */\n    tag_88:\n        /* \"#utility.yul\":3947:4069   */\n      pop\n      jump\t// out\n        /* \"#utility.yul\":4075:4213   */\n    tag_38:\n        /* \"#utility.yul\":4156:4188   */\n      tag_90\n        /* \"#utility.yul\":4182:4187   */\n      dup2\n        /* \"#utility.yul\":4156:4188   */\n      tag_77\n      jump\t// in\n    tag_90:\n        /* \"#utility.yul\":4149:4154   */\n      dup2\n        /* \"#utility.yul\":4146:4189   */\n      eq\n        /* \"#utility.yul\":4136:4207   */\n      tag_91\n      jumpi\n        /* \"#utility.yul\":4203:4204   */\n      0x00\n        /* \"#utility.yul\":4200:4201   */\n      dup1\n        /* \"#utility.yul\":4193:4205   */\n      revert\n        /* \"#utility.yul\":4136:4207   */\n    tag_91:\n        /* \"#utility.yul\":4075:4213   */\n      pop\n      jump\t// out\n\n    auxdata: 0xa2646970667358221220238e4fa0566f0d57216c5c095841394ad383f4825372d1a56374b9548ba7c20564736f6c63430008070033\n}\n",
				"bytecode": {
					"linkReferences": {},
					"object": "608060405234801561001057600080fd5b50610466806100206000396000f3fe6080604052600436106100345760003560e01c806348c981e21461003957806374003de914610055578063c776b4df1461007e575b600080fd5b610053600480360381019061004e9190610287565b610095565b005b34801561006157600080fd5b5061007c6004803603810190610077919061025a565b610189565b005b34801561008a57600080fd5b506100936101de565b005b343373ffffffffffffffffffffffffffffffffffffffff163110156100ef576040517f08c379a00000000000000000000000000000000000000000000000000000000081526004016100e690610355565b60405180910390fd5b8073ffffffffffffffffffffffffffffffffffffffff166108fc349081150290604051600060405180830381858888f19350505050158015610135573d6000803e3d6000fd5b507fef3d45e3976629248ff5a27c6e07e8c80013b2b1f46611f16ebf46c6bf09be29333373ffffffffffffffffffffffffffffffffffffffff163160405161017e92919061032c565b60405180910390a150565b7fbce456ac206bf5f267f4accbf956229979251e867ffc3fb45ca938fc6a27a44033828373ffffffffffffffffffffffffffffffffffffffff16316040516101d3939291906102f5565b60405180910390a150565b7f96f3ab567151de7a605db2b427c0e7bd4c402b81f2d24c89b0b92687e0494c15333373ffffffffffffffffffffffffffffffffffffffff163160405161022692919061032c565b60405180910390a1565b60008135905061023f81610402565b92915050565b60008135905061025481610419565b92915050565b6000602082840312156102705761026f6103d4565b5b600061027e84828501610230565b91505092915050565b60006020828403121561029d5761029c6103d4565b5b60006102ab84828501610245565b91505092915050565b6102bd81610386565b82525050565b60006102d0602083610375565b91506102db826103d9565b602082019050919050565b6102ef816103ca565b82525050565b600060608201905061030a60008301866102b4565b61031760208301856102b4565b61032460408301846102e6565b949350505050565b600060408201905061034160008301856102b4565b61034e60208301846102e6565b9392505050565b6000602082019050818103600083015261036e816102c3565b9050919050565b600082825260208201905092915050565b6000610391826103aa565b9050919050565b60006103a3826103aa565b9050919050565b600073ffffffffffffffffffffffffffffffffffffffff82169050919050565b6000819050919050565b600080fd5b7f796f75722062616c616e6365206973206e6f7420656e6f7567682c2074657374600082015250565b61040b81610386565b811461041657600080fd5b50565b61042281610398565b811461042d57600080fd5b5056fea2646970667358221220238e4fa0566f0d57216c5c095841394ad383f4825372d1a56374b9548ba7c20564736f6c63430008070033",
					"opcodes": "PUSH1 0x80 PUSH1 0x40 MSTORE CALLVALUE DUP1 ISZERO PUSH2 0x10 JUMPI PUSH1 0x0 DUP1 REVERT JUMPDEST POP PUSH2 0x466 DUP1 PUSH2 0x20 PUSH1 0x0 CODECOPY PUSH1 0x0 RETURN INVALID PUSH1 0x80 PUSH1 0x40 MSTORE PUSH1 0x4 CALLDATASIZE LT PUSH2 0x34 JUMPI PUSH1 0x0 CALLDATALOAD PUSH1 0xE0 SHR DUP1 PUSH4 0x48C981E2 EQ PUSH2 0x39 JUMPI DUP1 PUSH4 0x74003DE9 EQ PUSH2 0x55 JUMPI DUP1 PUSH4 0xC776B4DF EQ PUSH2 0x7E JUMPI JUMPDEST PUSH1 0x0 DUP1 REVERT JUMPDEST PUSH2 0x53 PUSH1 0x4 DUP1 CALLDATASIZE SUB DUP2 ADD SWAP1 PUSH2 0x4E SWAP2 SWAP1 PUSH2 0x287 JUMP JUMPDEST PUSH2 0x95 JUMP JUMPDEST STOP JUMPDEST CALLVALUE DUP1 ISZERO PUSH2 0x61 JUMPI PUSH1 0x0 DUP1 REVERT JUMPDEST POP PUSH2 0x7C PUSH1 0x4 DUP1 CALLDATASIZE SUB DUP2 ADD SWAP1 PUSH2 0x77 SWAP2 SWAP1 PUSH2 0x25A JUMP JUMPDEST PUSH2 0x189 JUMP JUMPDEST STOP JUMPDEST CALLVALUE DUP1 ISZERO PUSH2 0x8A JUMPI PUSH1 0x0 DUP1 REVERT JUMPDEST POP PUSH2 0x93 PUSH2 0x1DE JUMP JUMPDEST STOP JUMPDEST CALLVALUE CALLER PUSH20 0xFFFFFFFFFFFFFFFFFFFFFFFFFFFFFFFFFFFFFFFF AND BALANCE LT ISZERO PUSH2 0xEF JUMPI PUSH1 0x40 MLOAD PUSH32 0x8C379A000000000000000000000000000000000000000000000000000000000 DUP2 MSTORE PUSH1 0x4 ADD PUSH2 0xE6 SWAP1 PUSH2 0x355 JUMP JUMPDEST PUSH1 0x40 MLOAD DUP1 SWAP2 SUB SWAP1 REVERT JUMPDEST DUP1 PUSH20 0xFFFFFFFFFFFFFFFFFFFFFFFFFFFFFFFFFFFFFFFF AND PUSH2 0x8FC CALLVALUE SWAP1 DUP2 ISZERO MUL SWAP1 PUSH1 0x40 MLOAD PUSH1 0x0 PUSH1 0x40 MLOAD DUP1 DUP4 SUB DUP2 DUP6 DUP9 DUP9 CALL SWAP4 POP POP POP POP ISZERO DUP1 ISZERO PUSH2 0x135 JUMPI RETURNDATASIZE PUSH1 0x0 DUP1 RETURNDATACOPY RETURNDATASIZE PUSH1 0x0 REVERT JUMPDEST POP PUSH32 0xEF3D45E3976629248FF5A27C6E07E8C80013B2B1F46611F16EBF46C6BF09BE29 CALLER CALLER PUSH20 0xFFFFFFFFFFFFFFFFFFFFFFFFFFFFFFFFFFFFFFFF AND BALANCE PUSH1 0x40 MLOAD PUSH2 0x17E SWAP3 SWAP2 SWAP1 PUSH2 0x32C JUMP JUMPDEST PUSH1 0x40 MLOAD DUP1 SWAP2 SUB SWAP1 LOG1 POP JUMP JUMPDEST PUSH32 0xBCE456AC206BF5F267F4ACCBF956229979251E867FFC3FB45CA938FC6A27A440 CALLER DUP3 DUP4 PUSH20 0xFFFFFFFFFFFFFFFFFFFFFFFFFFFFFFFFFFFFFFFF AND BALANCE PUSH1 0x40 MLOAD PUSH2 0x1D3 SWAP4 SWAP3 SWAP2 SWAP1 PUSH2 0x2F5 JUMP JUMPDEST PUSH1 0x40 MLOAD DUP1 SWAP2 SUB SWAP1 LOG1 POP JUMP JUMPDEST PUSH32 0x96F3AB567151DE7A605DB2B427C0E7BD4C402B81F2D24C89B0B92687E0494C15 CALLER CALLER PUSH20 0xFFFFFFFFFFFFFFFFFFFFFFFFFFFFFFFFFFFFFFFF AND BALANCE PUSH1 0x40 MLOAD PUSH2 0x226 SWAP3 SWAP2 SWAP1 PUSH2 0x32C JUMP JUMPDEST PUSH1 0x40 MLOAD DUP1 SWAP2 SUB SWAP1 LOG1 JUMP JUMPDEST PUSH1 0x0 DUP2 CALLDATALOAD SWAP1 POP PUSH2 0x23F DUP2 PUSH2 0x402 JUMP JUMPDEST SWAP3 SWAP2 POP POP JUMP JUMPDEST PUSH1 0x0 DUP2 CALLDATALOAD SWAP1 POP PUSH2 0x254 DUP2 PUSH2 0x419 JUMP JUMPDEST SWAP3 SWAP2 POP POP JUMP JUMPDEST PUSH1 0x0 PUSH1 0x20 DUP3 DUP5 SUB SLT ISZERO PUSH2 0x270 JUMPI PUSH2 0x26F PUSH2 0x3D4 JUMP JUMPDEST JUMPDEST PUSH1 0x0 PUSH2 0x27E DUP5 DUP3 DUP6 ADD PUSH2 0x230 JUMP JUMPDEST SWAP2 POP POP SWAP3 SWAP2 POP POP JUMP JUMPDEST PUSH1 0x0 PUSH1 0x20 DUP3 DUP5 SUB SLT ISZERO PUSH2 0x29D JUMPI PUSH2 0x29C PUSH2 0x3D4 JUMP JUMPDEST JUMPDEST PUSH1 0x0 PUSH2 0x2AB DUP5 DUP3 DUP6 ADD PUSH2 0x245 JUMP JUMPDEST SWAP2 POP POP SWAP3 SWAP2 POP POP JUMP JUMPDEST PUSH2 0x2BD DUP2 PUSH2 0x386 JUMP JUMPDEST DUP3 MSTORE POP POP JUMP JUMPDEST PUSH1 0x0 PUSH2 0x2D0 PUSH1 0x20 DUP4 PUSH2 0x375 JUMP JUMPDEST SWAP2 POP PUSH2 0x2DB DUP3 PUSH2 0x3D9 JUMP JUMPDEST PUSH1 0x20 DUP3 ADD SWAP1 POP SWAP2 SWAP1 POP JUMP JUMPDEST PUSH2 0x2EF DUP2 PUSH2 0x3CA JUMP JUMPDEST DUP3 MSTORE POP POP JUMP JUMPDEST PUSH1 0x0 PUSH1 0x60 DUP3 ADD SWAP1 POP PUSH2 0x30A PUSH1 0x0 DUP4 ADD DUP7 PUSH2 0x2B4 JUMP JUMPDEST PUSH2 0x317 PUSH1 0x20 DUP4 ADD DUP6 PUSH2 0x2B4 JUMP JUMPDEST PUSH2 0x324 PUSH1 0x40 DUP4 ADD DUP5 PUSH2 0x2E6 JUMP JUMPDEST SWAP5 SWAP4 POP POP POP POP JUMP JUMPDEST PUSH1 0x0 PUSH1 0x40 DUP3 ADD SWAP1 POP PUSH2 0x341 PUSH1 0x0 DUP4 ADD DUP6 PUSH2 0x2B4 JUMP JUMPDEST PUSH2 0x34E PUSH1 0x20 DUP4 ADD DUP5 PUSH2 0x2E6 JUMP JUMPDEST SWAP4 SWAP3 POP POP POP JUMP JUMPDEST PUSH1 0x0 PUSH1 0x20 DUP3 ADD SWAP1 POP DUP2 DUP2 SUB PUSH1 0x0 DUP4 ADD MSTORE PUSH2 0x36E DUP2 PUSH2 0x2C3 JUMP JUMPDEST SWAP1 POP SWAP2 SWAP1 POP JUMP JUMPDEST PUSH1 0x0 DUP3 DUP3 MSTORE PUSH1 0x20 DUP3 ADD SWAP1 POP SWAP3 SWAP2 POP POP JUMP JUMPDEST PUSH1 0x0 PUSH2 0x391 DUP3 PUSH2 0x3AA JUMP JUMPDEST SWAP1 POP SWAP2 SWAP1 POP JUMP JUMPDEST PUSH1 0x0 PUSH2 0x3A3 DUP3 PUSH2 0x3AA JUMP JUMPDEST SWAP1 POP SWAP2 SWAP1 POP JUMP JUMPDEST PUSH1 0x0 PUSH20 0xFFFFFFFFFFFFFFFFFFFFFFFFFFFFFFFFFFFFFFFF DUP3 AND SWAP1 POP SWAP2 SWAP1 POP JUMP JUMPDEST PUSH1 0x0 DUP2 SWAP1 POP SWAP2 SWAP1 POP JUMP JUMPDEST PUSH1 0x0 DUP1 REVERT JUMPDEST PUSH32 0x796F75722062616C616E6365206973206E6F7420656E6F7567682C2074657374 PUSH1 0x0 DUP3 ADD MSTORE POP JUMP JUMPDEST PUSH2 0x40B DUP2 PUSH2 0x386 JUMP JUMPDEST DUP2 EQ PUSH2 0x416 JUMPI PUSH1 0x0 DUP1 REVERT JUMPDEST POP JUMP JUMPDEST PUSH2 0x422 DUP2 PUSH2 0x398 JUMP JUMPDEST DUP2 EQ PUSH2 0x42D JUMPI PUSH1 0x0 DUP1 REVERT JUMPDEST POP JUMP INVALID LOG2 PUSH5 0x6970667358 0x22 SLT KECCAK256 0x23 DUP15 0x4F LOG0 JUMP PUSH16 0xD57216C5C095841394AD383F4825372 0xD1 0xA5 PUSH4 0x74B9548B 0xA7 0xC2 SDIV PUSH5 0x736F6C6343 STOP ADDMOD SMOD STOP CALLER "
				},
				"gasEstimates": {
					"creation": {
						"codeDepositCost": "225200",
						"executionCost": "269",
						"totalCost": "225469"
					},
					"external": {
						"checkUserValue(address)": "infinite",
						"checkValueNow()": "4369",
						"sendEther(address)": "infinite"
					}
				},
				"methodIdentifiers": {
					"checkUserValue(address)": "74003de9",
					"checkValueNow()": "c776b4df",
					"sendEther(address)": "48c981e2"
				}
			},
			"storageLayout": {
				"storage": [],
				"types": null
			},
			"userdoc": {
				"kind": "user",
				"methods": {},
				"version": 1
			}
		}
	}
}